{
  "contractName": "EraSwapToken",
  "abi": [
    {
      "constant": true,
      "inputs": [],
      "name": "mintingFinished",
      "outputs": [
        {
          "name": "",
          "type": "bool"
        }
      ],
      "payable": false,
      "stateMutability": "view",
      "type": "function"
    },
    {
      "constant": true,
      "inputs": [],
      "name": "name",
      "outputs": [
        {
          "name": "",
          "type": "string"
        }
      ],
      "payable": false,
      "stateMutability": "view",
      "type": "function"
    },
    {
      "constant": false,
      "inputs": [
        {
          "name": "_spender",
          "type": "address"
        },
        {
          "name": "_amount",
          "type": "uint256"
        }
      ],
      "name": "approve",
      "outputs": [
        {
          "name": "success",
          "type": "bool"
        }
      ],
      "payable": false,
      "stateMutability": "nonpayable",
      "type": "function"
    },
    {
      "constant": false,
      "inputs": [],
      "name": "mint",
      "outputs": [
        {
          "name": "",
          "type": "bool"
        }
      ],
      "payable": false,
      "stateMutability": "nonpayable",
      "type": "function"
    },
    {
      "constant": true,
      "inputs": [],
      "name": "totalSupply",
      "outputs": [
        {
          "name": "",
          "type": "uint256"
        }
      ],
      "payable": false,
      "stateMutability": "view",
      "type": "function"
    },
    {
      "constant": false,
      "inputs": [
        {
          "name": "_from",
          "type": "address"
        },
        {
          "name": "_to",
          "type": "address"
        },
        {
          "name": "_amount",
          "type": "uint256"
        }
      ],
      "name": "transferFrom",
      "outputs": [
        {
          "name": "success",
          "type": "bool"
        }
      ],
      "payable": false,
      "stateMutability": "nonpayable",
      "type": "function"
    },
    {
      "constant": true,
      "inputs": [],
      "name": "lastMintingTime",
      "outputs": [
        {
          "name": "",
          "type": "uint256"
        }
      ],
      "payable": false,
      "stateMutability": "view",
      "type": "function"
    },
    {
      "constant": false,
      "inputs": [
        {
          "name": "_beneficiaries",
          "type": "address[]"
        },
        {
          "name": "percentages",
          "type": "uint256[]"
        }
      ],
      "name": "beneficiariesPercentage",
      "outputs": [
        {
          "name": "",
          "type": "bool"
        }
      ],
      "payable": false,
      "stateMutability": "nonpayable",
      "type": "function"
    },
    {
      "constant": true,
      "inputs": [],
      "name": "decimals",
      "outputs": [
        {
          "name": "",
          "type": "uint8"
        }
      ],
      "payable": false,
      "stateMutability": "view",
      "type": "function"
    },
    {
      "constant": false,
      "inputs": [
        {
          "name": "_value",
          "type": "uint256"
        }
      ],
      "name": "burn",
      "outputs": [],
      "payable": false,
      "stateMutability": "nonpayable",
      "type": "function"
    },
    {
      "constant": true,
      "inputs": [
        {
          "name": "_owner",
          "type": "address"
        }
      ],
      "name": "balanceOf",
      "outputs": [
        {
          "name": "balance",
          "type": "uint256"
        }
      ],
      "payable": false,
      "stateMutability": "view",
      "type": "function"
    },
    {
      "constant": false,
      "inputs": [],
      "name": "finishMinting",
      "outputs": [
        {
          "name": "",
          "type": "bool"
        }
      ],
      "payable": false,
      "stateMutability": "nonpayable",
      "type": "function"
    },
    {
      "constant": true,
      "inputs": [],
      "name": "mintingThreshold",
      "outputs": [
        {
          "name": "",
          "type": "uint256"
        }
      ],
      "payable": false,
      "stateMutability": "view",
      "type": "function"
    },
    {
      "constant": true,
      "inputs": [],
      "name": "owner",
      "outputs": [
        {
          "name": "",
          "type": "address"
        }
      ],
      "payable": false,
      "stateMutability": "view",
      "type": "function"
    },
    {
      "constant": true,
      "inputs": [],
      "name": "symbol",
      "outputs": [
        {
          "name": "",
          "type": "string"
        }
      ],
      "payable": false,
      "stateMutability": "view",
      "type": "function"
    },
    {
      "constant": false,
      "inputs": [
        {
          "name": "_to",
          "type": "address"
        },
        {
          "name": "_amount",
          "type": "uint256"
        }
      ],
      "name": "transfer",
      "outputs": [
        {
          "name": "success",
          "type": "bool"
        }
      ],
      "payable": false,
      "stateMutability": "nonpayable",
      "type": "function"
    },
    {
      "constant": true,
      "inputs": [
        {
          "name": "",
          "type": "address"
        }
      ],
      "name": "shares",
      "outputs": [
        {
          "name": "",
          "type": "uint256"
        }
      ],
      "payable": false,
      "stateMutability": "view",
      "type": "function"
    },
    {
      "constant": true,
      "inputs": [
        {
          "name": "_owner",
          "type": "address"
        },
        {
          "name": "_spender",
          "type": "address"
        }
      ],
      "name": "allowance",
      "outputs": [
        {
          "name": "remaining",
          "type": "uint256"
        }
      ],
      "payable": false,
      "stateMutability": "view",
      "type": "function"
    },
    {
      "constant": true,
      "inputs": [],
      "name": "mintingStartTime",
      "outputs": [
        {
          "name": "",
          "type": "uint256"
        }
      ],
      "payable": false,
      "stateMutability": "view",
      "type": "function"
    },
    {
      "constant": true,
      "inputs": [],
      "name": "lastMintedTokens",
      "outputs": [
        {
          "name": "",
          "type": "uint256"
        }
      ],
      "payable": false,
      "stateMutability": "view",
      "type": "function"
    },
    {
      "constant": true,
      "inputs": [
        {
          "name": "",
          "type": "uint256"
        }
      ],
      "name": "beneficiaries",
      "outputs": [
        {
          "name": "",
          "type": "address"
        }
      ],
      "payable": false,
      "stateMutability": "view",
      "type": "function"
    },
    {
      "constant": false,
      "inputs": [
        {
          "name": "newOwner",
          "type": "address"
        }
      ],
      "name": "transferOwnership",
      "outputs": [],
      "payable": false,
      "stateMutability": "nonpayable",
      "type": "function"
    },
    {
      "inputs": [
        {
          "name": "initialSupply",
          "type": "uint256"
        },
        {
          "name": "tokenName",
          "type": "string"
        },
        {
          "name": "tokenSymbol",
          "type": "string"
        }
      ],
      "payable": false,
      "stateMutability": "nonpayable",
      "type": "constructor"
    },
    {
      "payable": true,
      "stateMutability": "payable",
      "type": "fallback"
    },
    {
      "anonymous": false,
      "inputs": [
        {
          "indexed": true,
          "name": "to",
          "type": "address"
        },
        {
          "indexed": false,
          "name": "amount",
          "type": "uint256"
        }
      ],
      "name": "Mint",
      "type": "event"
    },
    {
      "anonymous": false,
      "inputs": [],
      "name": "MintFinished",
      "type": "event"
    },
    {
      "anonymous": false,
      "inputs": [],
      "name": "BeneficiariesAdded",
      "type": "event"
    },
    {
      "anonymous": false,
      "inputs": [
        {
          "indexed": true,
          "name": "burner",
          "type": "address"
        },
        {
          "indexed": false,
          "name": "value",
          "type": "uint256"
        }
      ],
      "name": "Burn",
      "type": "event"
    },
    {
      "anonymous": false,
      "inputs": [
        {
          "indexed": true,
          "name": "previousOwner",
          "type": "address"
        },
        {
          "indexed": true,
          "name": "newOwner",
          "type": "address"
        }
      ],
      "name": "OwnershipTransferred",
      "type": "event"
    },
    {
      "anonymous": false,
      "inputs": [
        {
          "indexed": true,
          "name": "owner",
          "type": "address"
        },
        {
          "indexed": true,
          "name": "spender",
          "type": "address"
        },
        {
          "indexed": false,
          "name": "value",
          "type": "uint256"
        }
      ],
      "name": "Approval",
      "type": "event"
    },
    {
      "anonymous": false,
      "inputs": [
        {
          "indexed": true,
          "name": "from",
          "type": "address"
        },
        {
          "indexed": true,
          "name": "to",
          "type": "address"
        },
        {
          "indexed": false,
          "name": "value",
          "type": "uint256"
        }
      ],
      "name": "Transfer",
      "type": "event"
    },
    {
      "constant": true,
      "inputs": [],
      "name": "getTokenDetail",
      "outputs": [
        {
          "name": "",
          "type": "string"
        },
        {
          "name": "",
          "type": "string"
        },
        {
          "name": "",
          "type": "uint256"
        }
      ],
      "payable": false,
      "stateMutability": "view",
      "type": "function"
    }
  ],
  "bytecode": "0x6080604052635b2e7d2f6007556301e133806008556701434c04928f80006009556000600a60006101000a81548160ff0219169083151502179055506008600d60006101000a81548160ff021916908360ff1602179055503480156200006457600080fd5b50604051620027903803806200279083398101806040528101908080519060200190929190805182019291906020018051820192919050505033600360006101000a81548173ffffffffffffffffffffffffffffffffffffffff021916908373ffffffffffffffffffffffffffffffffffffffff16021790555062000116600d60009054906101000a900460ff1660ff16600a0a8462000205640100000000026200216b179091906401000000009004565b60008190555081600b90805190602001906200013492919062000244565b5080600c90805190602001906200014d92919062000244565b50600054600160003373ffffffffffffffffffffffffffffffffffffffff1673ffffffffffffffffffffffffffffffffffffffff168152602001908152602001600020819055503373ffffffffffffffffffffffffffffffffffffffff16600073ffffffffffffffffffffffffffffffffffffffff167fddf252ad1be2c89b69c2b068fc378daa952ba7f163c4a11628f55a4df523b3ef6000546040518082815260200191505060405180910390a3505050620002f3565b60008060008414156200021c57600091506200023d565b82840290508284828115156200022e57fe5b041415156200023957fe5b8091505b5092915050565b828054600181600116156101000203166002900490600052602060002090601f016020900481019282601f106200028757805160ff1916838001178555620002b8565b82800160010185558215620002b8579182015b82811115620002b75782518255916020019190600101906200029a565b5b509050620002c79190620002cb565b5090565b620002f091905b80821115620002ec576000816000905550600101620002d2565b5090565b90565b61248d80620003036000396000f300608060405260043610610133576000357c0100000000000000000000000000000000000000000000000000000000900463ffffffff16806305d2035b1461013857806306fdde0314610167578063095ea7b3146101f75780631249c58b1461025c57806318160ddd1461028b57806323b872dd146102b6578063289de6151461033b5780632af05c4e1461043e5780632e368e0314610469578063313ce567146104d457806342966c681461050557806370a08231146105325780637d64bcb41461058957806387b55705146105b85780638da5cb5b146105e357806395d89b411461063a578063a9059cbb146106ca578063ce7c2ac21461072f578063dd62ed3e14610786578063dfef5f69146107fd578063e3aeedc414610828578063efeb5e5814610853578063f2fde38b146108c0575b600080fd5b34801561014457600080fd5b5061014d610903565b604051808215151515815260200191505060405180910390f35b34801561017357600080fd5b5061017c610916565b6040518080602001828103825283818151815260200191508051906020019080838360005b838110156101bc5780820151818401526020810190506101a1565b50505050905090810190601f1680156101e95780820380516001836020036101000a031916815260200191505b509250505060405180910390f35b34801561020357600080fd5b50610242600480360381019080803573ffffffffffffffffffffffffffffffffffffffff169060200190929190803590602001909291905050506109b4565b604051808215151515815260200191505060405180910390f35b34801561026857600080fd5b50610271610aa6565b604051808215151515815260200191505060405180910390f35b34801561029757600080fd5b506102a0610fbf565b6040518082815260200191505060405180910390f35b3480156102c257600080fd5b50610321600480360381019080803573ffffffffffffffffffffffffffffffffffffffff169060200190929190803573ffffffffffffffffffffffffffffffffffffffff16906020019092919080359060200190929190505050610fc5565b604051808215151515815260200191505060405180910390f35b34801561034757600080fd5b5061035061142e565b604051808060200180602001848152602001838103835286818151815260200191508051906020019080838360005b8381101561039a57808201518184015260208101905061037f565b50505050905090810190601f1680156103c75780820380516001836020036101000a031916815260200191505b50838103825285818151815260200191508051906020019080838360005b838110156104005780820151818401526020810190506103e5565b50505050905090810190601f16801561042d5780820380516001836020036101000a031916815260200191505b509550505050505060405180910390f35b34801561044a57600080fd5b5061045361157d565b6040518082815260200191505060405180910390f35b34801561047557600080fd5b506104ba600480360381019080803590602001908201803590602001919091929391929390803590602001908201803590602001919091929391929390505050611583565b604051808215151515815260200191505060405180910390f35b3480156104e057600080fd5b506104e9611934565b604051808260ff1660ff16815260200191505060405180910390f35b34801561051157600080fd5b5061053060048036038101908080359060200190929190505050611947565b005b34801561053e57600080fd5b50610573600480360381019080803573ffffffffffffffffffffffffffffffffffffffff169060200190929190505050611954565b6040518082815260200191505060405180910390f35b34801561059557600080fd5b5061059e61199d565b604051808215151515815260200191505060405180910390f35b3480156105c457600080fd5b506105cd611a91565b6040518082815260200191505060405180910390f35b3480156105ef57600080fd5b506105f8611a97565b604051808273ffffffffffffffffffffffffffffffffffffffff1673ffffffffffffffffffffffffffffffffffffffff16815260200191505060405180910390f35b34801561064657600080fd5b5061064f611abd565b6040518080602001828103825283818151815260200191508051906020019080838360005b8381101561068f578082015181840152602081019050610674565b50505050905090810190601f1680156106bc5780820380516001836020036101000a031916815260200191505b509250505060405180910390f35b3480156106d657600080fd5b50610715600480360381019080803573ffffffffffffffffffffffffffffffffffffffff16906020019092919080359060200190929190505050611b5b565b604051808215151515815260200191505060405180910390f35b34801561073b57600080fd5b50610770600480360381019080803573ffffffffffffffffffffffffffffffffffffffff169060200190929190505050611e26565b6040518082815260200191505060405180910390f35b34801561079257600080fd5b506107e7600480360381019080803573ffffffffffffffffffffffffffffffffffffffff169060200190929190803573ffffffffffffffffffffffffffffffffffffffff169060200190929190505050611e3e565b6040518082815260200191505060405180910390f35b34801561080957600080fd5b50610812611ec5565b6040518082815260200191505060405180910390f35b34801561083457600080fd5b5061083d611ecb565b6040518082815260200191505060405180910390f35b34801561085f57600080fd5b5061087e60048036038101908080359060200190929190505050611ed1565b604051808273ffffffffffffffffffffffffffffffffffffffff1673ffffffffffffffffffffffffffffffffffffffff16815260200191505060405180910390f35b3480156108cc57600080fd5b50610901600480360381019080803573ffffffffffffffffffffffffffffffffffffffff169060200190929190505050611f0f565b005b600a60009054906101000a900460ff1681565b600b8054600181600116156101000203166002900480601f0160208091040260200160405190810160405280929190818152602001828054600181600116156101000203166002900480156109ac5780601f10610981576101008083540402835291602001916109ac565b820191906000526020600020905b81548152906001019060200180831161098f57829003601f168201915b505050505081565b600081600260003373ffffffffffffffffffffffffffffffffffffffff1673ffffffffffffffffffffffffffffffffffffffff16815260200190815260200160002060008573ffffffffffffffffffffffffffffffffffffffff1673ffffffffffffffffffffffffffffffffffffffff168152602001908152602001600020819055508273ffffffffffffffffffffffffffffffffffffffff163373ffffffffffffffffffffffffffffffffffffffff167f8c5be1e5ebec7d5bd14f71427d1e84f3dd0314c0f7b2291e5b200ac8c7c3b925846040518082815260200191505060405180910390a36001905092915050565b6000806000600360009054906101000a900473ffffffffffffffffffffffffffffffffffffffff1673ffffffffffffffffffffffffffffffffffffffff163373ffffffffffffffffffffffffffffffffffffffff16141515610b0757600080fd5b600a60009054906101000a900460ff16151515610b2357600080fd5b670ca0f82db99b0000600054101515610b3b57600080fd5b6007600580549050141515610b4f57600080fd5b610b57612067565b9150610b6e8260005461214d90919063ffffffff16565b600081905550600090505b6005805490508160ff161015610faf57610cb7610c2d6064610c1f6004600060058760ff16815481101515610baa57fe5b9060005260206000200160009054906101000a900473ffffffffffffffffffffffffffffffffffffffff1673ffffffffffffffffffffffffffffffffffffffff1673ffffffffffffffffffffffffffffffffffffffff168152602001908152602001600020548661216b90919063ffffffff16565b6121a690919063ffffffff16565b6001600060058560ff16815481101515610c4357fe5b9060005260206000200160009054906101000a900473ffffffffffffffffffffffffffffffffffffffff1673ffffffffffffffffffffffffffffffffffffffff1673ffffffffffffffffffffffffffffffffffffffff1681526020019081526020016000205461214d90919063ffffffff16565b6001600060058460ff16815481101515610ccd57fe5b9060005260206000200160009054906101000a900473ffffffffffffffffffffffffffffffffffffffff1673ffffffffffffffffffffffffffffffffffffffff1673ffffffffffffffffffffffffffffffffffffffff1681526020019081526020016000208190555060058160ff16815481101515610d4857fe5b9060005260206000200160009054906101000a900473ffffffffffffffffffffffffffffffffffffffff1673ffffffffffffffffffffffffffffffffffffffff167f0f6798a560793a54c3bcfe86a93cde1e73087d944c0ea20544137d4121396885610e4b6064610e3d6004600060058860ff16815481101515610dc857fe5b9060005260206000200160009054906101000a900473ffffffffffffffffffffffffffffffffffffffff1673ffffffffffffffffffffffffffffffffffffffff1673ffffffffffffffffffffffffffffffffffffffff168152602001908152602001600020548761216b90919063ffffffff16565b6121a690919063ffffffff16565b6040518082815260200191505060405180910390a260058160ff16815481101515610e7257fe5b9060005260206000200160009054906101000a900473ffffffffffffffffffffffffffffffffffffffff1673ffffffffffffffffffffffffffffffffffffffff16600073ffffffffffffffffffffffffffffffffffffffff167fddf252ad1be2c89b69c2b068fc378daa952ba7f163c4a11628f55a4df523b3ef610f8d6064610f7f6004600060058960ff16815481101515610f0a57fe5b9060005260206000200160009054906101000a900473ffffffffffffffffffffffffffffffffffffffff1673ffffffffffffffffffffffffffffffffffffffff1673ffffffffffffffffffffffffffffffffffffffff168152602001908152602001600020548861216b90919063ffffffff16565b6121a690919063ffffffff16565b6040518082815260200191505060405180910390a38080600101915050610b79565b4260068190555060019250505090565b60005481565b60008073ffffffffffffffffffffffffffffffffffffffff168373ffffffffffffffffffffffffffffffffffffffff161415151561100257600080fd5b81600160008673ffffffffffffffffffffffffffffffffffffffff1673ffffffffffffffffffffffffffffffffffffffff168152602001908152602001600020541015151561105057600080fd5b81600260008673ffffffffffffffffffffffffffffffffffffffff1673ffffffffffffffffffffffffffffffffffffffff16815260200190815260200160002060003373ffffffffffffffffffffffffffffffffffffffff1673ffffffffffffffffffffffffffffffffffffffff16815260200190815260200160002054101515156110db57600080fd5b60008211801561117a5750600160008473ffffffffffffffffffffffffffffffffffffffff1673ffffffffffffffffffffffffffffffffffffffff1681526020019081526020016000205461117883600160008773ffffffffffffffffffffffffffffffffffffffff1673ffffffffffffffffffffffffffffffffffffffff1681526020019081526020016000205461214d90919063ffffffff16565b115b151561118557600080fd5b6111d782600160008773ffffffffffffffffffffffffffffffffffffffff1673ffffffffffffffffffffffffffffffffffffffff168152602001908152602001600020546121c190919063ffffffff16565b600160008673ffffffffffffffffffffffffffffffffffffffff1673ffffffffffffffffffffffffffffffffffffffff1681526020019081526020016000208190555061126c82600160008673ffffffffffffffffffffffffffffffffffffffff1673ffffffffffffffffffffffffffffffffffffffff1681526020019081526020016000205461214d90919063ffffffff16565b600160008573ffffffffffffffffffffffffffffffffffffffff1673ffffffffffffffffffffffffffffffffffffffff1681526020019081526020016000208190555061133e82600260008773ffffffffffffffffffffffffffffffffffffffff1673ffffffffffffffffffffffffffffffffffffffff16815260200190815260200160002060003373ffffffffffffffffffffffffffffffffffffffff1673ffffffffffffffffffffffffffffffffffffffff168152602001908152602001600020546121c190919063ffffffff16565b600260008673ffffffffffffffffffffffffffffffffffffffff1673ffffffffffffffffffffffffffffffffffffffff16815260200190815260200160002060003373ffffffffffffffffffffffffffffffffffffffff1673ffffffffffffffffffffffffffffffffffffffff168152602001908152602001600020819055508273ffffffffffffffffffffffffffffffffffffffff168473ffffffffffffffffffffffffffffffffffffffff167fddf252ad1be2c89b69c2b068fc378daa952ba7f163c4a11628f55a4df523b3ef846040518082815260200191505060405180910390a3600190509392505050565b6060806000600b600c600054828054600181600116156101000203166002900480601f0160208091040260200160405190810160405280929190818152602001828054600181600116156101000203166002900480156114cf5780601f106114a4576101008083540402835291602001916114cf565b820191906000526020600020905b8154815290600101906020018083116114b257829003601f168201915b50505050509250818054600181600116156101000203166002900480601f01602080910402602001604051908101604052809291908181526020018280546001816001161561010002031660029004801561156b5780601f106115405761010080835404028352916020019161156b565b820191906000526020600020905b81548152906001019060200180831161154e57829003601f168201915b50505050509150925092509250909192565b60065481565b600080600080600360009054906101000a900473ffffffffffffffffffffffffffffffffffffffff1673ffffffffffffffffffffffffffffffffffffffff163373ffffffffffffffffffffffffffffffffffffffff161415156115e557600080fd5b6007888890501415156115f757600080fd5b60078686905014151561160957600080fd5b6000600580549050111561170a57600091505b6005805490508260ff1610156116f95760006004600060058560ff1681548110151561164457fe5b9060005260206000200160009054906101000a900473ffffffffffffffffffffffffffffffffffffffff1673ffffffffffffffffffffffffffffffffffffffff1673ffffffffffffffffffffffffffffffffffffffff1681526020019081526020016000208190555060058260ff168154811015156116bf57fe5b9060005260206000200160006101000a81549073ffffffffffffffffffffffffffffffffffffffff0219169055818060010192505061161c565b60006005816117089190612410565b505b600090505b878790508160ff1610156118ea57600088888360ff16818110151561173057fe5b9050602002013573ffffffffffffffffffffffffffffffffffffffff1673ffffffffffffffffffffffffffffffffffffffff161415151561177057600080fd5b600086868360ff16818110151561178357fe5b9050602002013511151561179657600080fd5b600588888360ff1681811015156117a957fe5b9050602002013573ffffffffffffffffffffffffffffffffffffffff1690806001815401808255809150509060018203906000526020600020016000909192909190916101000a81548173ffffffffffffffffffffffffffffffffffffffff021916908373ffffffffffffffffffffffffffffffffffffffff1602179055505085858260ff16818110151561183a57fe5b90506020020135600460008a8a8560ff16818110151561185657fe5b9050602002013573ffffffffffffffffffffffffffffffffffffffff1673ffffffffffffffffffffffffffffffffffffffff1673ffffffffffffffffffffffffffffffffffffffff168152602001908152602001600020819055506118db86868360ff1681811015156118c557fe5b905060200201358461214d90919063ffffffff16565b9250808060010191505061170f565b6064831415156118f957600080fd5b7f45dbfacb32139a73ba98185dc91b94a088fdee69b538bb008c6631ec99d58f2660405160405180910390a160019350505050949350505050565b600d60009054906101000a900460ff1681565b61195133826121da565b50565b6000600160008373ffffffffffffffffffffffffffffffffffffffff1673ffffffffffffffffffffffffffffffffffffffff168152602001908152602001600020549050919050565b6000600360009054906101000a900473ffffffffffffffffffffffffffffffffffffffff1673ffffffffffffffffffffffffffffffffffffffff163373ffffffffffffffffffffffffffffffffffffffff161415156119fb57600080fd5b600a60009054906101000a900460ff16151515611a1757600080fd5b670ca0f82db99b0000600054101515611a2f57600080fd5b6007600580549050141515611a4357600080fd5b6001600a60006101000a81548160ff0219169083151502179055507fae5184fba832cb2b1f702aca6117b8d265eaf03ad33eb133f19dde0f5920fa0860405160405180910390a16001905090565b60085481565b600360009054906101000a900473ffffffffffffffffffffffffffffffffffffffff1681565b600c8054600181600116156101000203166002900480601f016020809104026020016040519081016040528092919081815260200182805460018160011615610100020316600290048015611b535780601f10611b2857610100808354040283529160200191611b53565b820191906000526020600020905b815481529060010190602001808311611b3657829003601f168201915b505050505081565b60008073ffffffffffffffffffffffffffffffffffffffff168373ffffffffffffffffffffffffffffffffffffffff1614151515611b9857600080fd5b81600160003373ffffffffffffffffffffffffffffffffffffffff1673ffffffffffffffffffffffffffffffffffffffff1681526020019081526020016000205410158015611be75750600082115b8015611c825750600160008473ffffffffffffffffffffffffffffffffffffffff1673ffffffffffffffffffffffffffffffffffffffff16815260200190815260200160002054611c8083600160008773ffffffffffffffffffffffffffffffffffffffff1673ffffffffffffffffffffffffffffffffffffffff1681526020019081526020016000205461214d90919063ffffffff16565b115b1515611c8d57600080fd5b611cdf82600160003373ffffffffffffffffffffffffffffffffffffffff1673ffffffffffffffffffffffffffffffffffffffff168152602001908152602001600020546121c190919063ffffffff16565b600160003373ffffffffffffffffffffffffffffffffffffffff1673ffffffffffffffffffffffffffffffffffffffff16815260200190815260200160002081905550611d7482600160008673ffffffffffffffffffffffffffffffffffffffff1673ffffffffffffffffffffffffffffffffffffffff1681526020019081526020016000205461214d90919063ffffffff16565b600160008573ffffffffffffffffffffffffffffffffffffffff1673ffffffffffffffffffffffffffffffffffffffff168152602001908152602001600020819055508273ffffffffffffffffffffffffffffffffffffffff163373ffffffffffffffffffffffffffffffffffffffff167fddf252ad1be2c89b69c2b068fc378daa952ba7f163c4a11628f55a4df523b3ef846040518082815260200191505060405180910390a36001905092915050565b60046020528060005260406000206000915090505481565b6000600260008473ffffffffffffffffffffffffffffffffffffffff1673ffffffffffffffffffffffffffffffffffffffff16815260200190815260200160002060008373ffffffffffffffffffffffffffffffffffffffff1673ffffffffffffffffffffffffffffffffffffffff16815260200190815260200160002054905092915050565b60075481565b60095481565b600581815481101515611ee057fe5b906000526020600020016000915054906101000a900473ffffffffffffffffffffffffffffffffffffffff1681565b600360009054906101000a900473ffffffffffffffffffffffffffffffffffffffff1673ffffffffffffffffffffffffffffffffffffffff163373ffffffffffffffffffffffffffffffffffffffff16141515611f6b57600080fd5b600073ffffffffffffffffffffffffffffffffffffffff168173ffffffffffffffffffffffffffffffffffffffff1614151515611fa757600080fd5b8073ffffffffffffffffffffffffffffffffffffffff16600360009054906101000a900473ffffffffffffffffffffffffffffffffffffffff1673ffffffffffffffffffffffffffffffffffffffff167f8be0079c531659141344cd1fd0a4f28419497f9722a3daafe3b4186f6b6457e060405160405180910390a380600360006101000a81548173ffffffffffffffffffffffffffffffffffffffff021916908373ffffffffffffffffffffffffffffffffffffffff16021790555050565b6000806000612074612390565b61207c6123ce565b03915060008260ff1611151561209157600080fd5b600090505b8160ff168160ff161015612145576120f36120e46120d360646120c5600a60095461216b90919063ffffffff16565b6121a690919063ffffffff16565b6009546121c190919063ffffffff16565b8461214d90919063ffffffff16565b92506121326121216064612113600a60095461216b90919063ffffffff16565b6121a690919063ffffffff16565b6009546121c190919063ffffffff16565b6009819055508080600101915050612096565b829250505090565b600080828401905083811015151561216157fe5b8091505092915050565b6000806000841415612180576000915061219f565b828402905082848281151561219157fe5b0414151561219b57fe5b8091505b5092915050565b60008082848115156121b457fe5b0490508091505092915050565b60008282111515156121cf57fe5b818303905092915050565b600160008373ffffffffffffffffffffffffffffffffffffffff1673ffffffffffffffffffffffffffffffffffffffff16815260200190815260200160002054811115151561222857600080fd5b61227a81600160008573ffffffffffffffffffffffffffffffffffffffff1673ffffffffffffffffffffffffffffffffffffffff168152602001908152602001600020546121c190919063ffffffff16565b600160008473ffffffffffffffffffffffffffffffffffffffff1673ffffffffffffffffffffffffffffffffffffffff168152602001908152602001600020819055506122d2816000546121c190919063ffffffff16565b6000819055508173ffffffffffffffffffffffffffffffffffffffff167fcc16f5dbb4873280815c1ee09dbd06736cffcc184412cf7a71a0fdb75d397ca5826040518082815260200191505060405180910390a2600073ffffffffffffffffffffffffffffffffffffffff168273ffffffffffffffffffffffffffffffffffffffff167fddf252ad1be2c89b69c2b068fc378daa952ba7f163c4a11628f55a4df523b3ef836040518082815260200191505060405180910390a35050565b60008060075490505b6006548110156123c7576123b86008548261214d90919063ffffffff16565b90508180600101925050612399565b8191505090565b600080600042915060075490505b81811015612408576123f96008548261214d90919063ffffffff16565b905082806001019350506123dc565b829250505090565b81548183558181111561243757818360005260206000209182019101612436919061243c565b5b505050565b61245e91905b8082111561245a576000816000905550600101612442565b5090565b905600a165627a7a7230582000396bb54e97fba1f871b2ca333596697e780bcd6c7c3c18aef9087371b6bc190029",
  "source": "pragma solidity 0.4.24;\n\n\n/**\n * @title SafeMath\n * @dev Math operations with safety checks that throw on error\n */\nlibrary SafeMath {\n  function mul(uint256 a, uint256 b) internal pure returns (uint256) {\n    if (a == 0) {\n      return 0;\n    }\n    uint256 c = a * b;\n    assert(c / a == b);\n    return c;\n  }\n\n  function div(uint256 a, uint256 b) internal pure returns (uint256) {\n    // assert(b > 0); // Solidity automatically throws when dividing by 0\n    uint256 c = a / b;\n    // assert(a == b * c + a % b); // There is no case in which this doesn't hold\n    return c;\n  }\n\n  function sub(uint256 a, uint256 b) internal pure returns (uint256) {\n    assert(b <= a);\n    return a - b;\n  }\n\n  function add(uint256 a, uint256 b) internal pure returns (uint256) {\n    uint256 c = a + b;\n    assert(c >= a);\n    return c;\n  }\n}\n/**\n * @title Ownable\n * @dev The Ownable contract has an owner address, and provides basic authorization control\n * functions, this simplifies the implementation of \"user permissions\".\n */\ncontract Ownable {\n  address public owner;\n\n\n  event OwnershipTransferred(address indexed previousOwner, address indexed newOwner);\n\n\n  /**\n   * @dev The Ownable constructor sets the original `owner` of the contract to the sender\n   * account.\n   */\n  constructor () public {\n    owner = msg.sender;\n  }\n\n  /**\n   * @dev Throws if called by any account other than the owner.\n   */\n  modifier onlyOwner() {\n    require(msg.sender == owner);\n    _;\n  }\n\n  /**\n   * @dev Allows the current owner to transfer control of the contract to a newOwner.\n   * @param newOwner The address to transfer ownership to.\n   */\n  function transferOwnership(address newOwner) public onlyOwner {\n    require(newOwner != address(0));\n    emit OwnershipTransferred(owner, newOwner);\n    owner = newOwner;\n  }\n\n}\n/**\n * @title ERC20Basic\n * @dev Simpler version of ERC20 interface\n * @dev see https://github.com/ethereum/EIPs/issues/179\n */\ncontract ERC20Basic {\n    /// Total amount of tokens\n  uint256 public totalSupply;\n  \n  function balanceOf(address _owner) public view returns (uint256 balance);\n  \n  function transfer(address _to, uint256 _amount) public returns (bool success);\n  \n  event Transfer(address indexed from, address indexed to, uint256 value);\n}\n\n/**\n * @title ERC20 interface\n * @dev see https://github.com/ethereum/EIPs/issues/20\n */\ncontract ERC20 is ERC20Basic {\n  function allowance(address _owner, address _spender) public view returns (uint256 remaining);\n  \n  function transferFrom(address _from, address _to, uint256 _amount) public returns (bool success);\n  \n  function approve(address _spender, uint256 _amount) public returns (bool success);\n  \n  event Approval(address indexed owner, address indexed spender, uint256 value);\n}\n\n/**\n * @title Basic token\n * @dev Basic version of StandardToken, with no allowances.\n */\ncontract BasicToken is ERC20Basic {\n  using SafeMath for uint256;\n\n  //balance in each address account\n  mapping(address => uint256) balances;\n\n  /**\n  * @dev transfer token for a specified address\n  * @param _to The address to transfer to.\n  * @param _amount The amount to be transferred.\n  */\n  function transfer(address _to, uint256 _amount) public returns (bool success) {\n    require(_to != address(0));\n    require(balances[msg.sender] >= _amount && _amount > 0\n        && balances[_to].add(_amount) > balances[_to]);\n\n    // SafeMath.sub will throw if there is not enough balance.\n    balances[msg.sender] = balances[msg.sender].sub(_amount);\n    balances[_to] = balances[_to].add(_amount);\n    emit Transfer(msg.sender, _to, _amount);\n    return true;\n  }\n\n  /**\n  * @dev Gets the balance of the specified address.\n  * @param _owner The address to query the the balance of.\n  * @return An uint256 representing the amount owned by the passed address.\n  */\n  function balanceOf(address _owner) public view returns (uint256 balance) {\n    return balances[_owner];\n  }\n\n}\n\n/**\n * @title Standard ERC20 token\n *\n * @dev Implementation of the basic standard token.\n * @dev https://github.com/ethereum/EIPs/issues/20\n */\ncontract StandardToken is ERC20, BasicToken {\n  \n  \n  mapping (address => mapping (address => uint256)) internal allowed;\n\n\n  /**\n   * @dev Transfer tokens from one address to another\n   * @param _from address The address which you want to send tokens from\n   * @param _to address The address which you want to transfer to\n   * @param _amount uint256 the amount of tokens to be transferred\n   */\n  function transferFrom(address _from, address _to, uint256 _amount) public returns (bool success) {\n    require(_to != address(0));\n    require(balances[_from] >= _amount);\n    require(allowed[_from][msg.sender] >= _amount);\n    require(_amount > 0 && balances[_to].add(_amount) > balances[_to]);\n\n    balances[_from] = balances[_from].sub(_amount);\n    balances[_to] = balances[_to].add(_amount);\n    allowed[_from][msg.sender] = allowed[_from][msg.sender].sub(_amount);\n    emit Transfer(_from, _to, _amount);\n    return true;\n  }\n\n  /**\n   * @dev Approve the passed address to spend the specified amount of tokens on behalf of msg.sender.\n   *\n   * Beware that changing an allowance with this method brings the risk that someone may use both the old\n   * and the new allowance by unfortunate transaction ordering. One possible solution to mitigate this\n   * race condition is to first reduce the spender's allowance to 0 and set the desired value afterwards:\n   * https://github.com/ethereum/EIPs/issues/20#issuecomment-263524729\n   * @param _spender The address which will spend the funds.\n   * @param _amount The amount of tokens to be spent.\n   */\n  function approve(address _spender, uint256 _amount) public returns (bool success) {\n    allowed[msg.sender][_spender] = _amount;\n    emit Approval(msg.sender, _spender, _amount);\n    return true;\n  }\n\n  /**\n   * @dev Function to check the amount of tokens that an owner allowed to a spender.\n   * @param _owner address The address which owns the funds.\n   * @param _spender address The address which will spend the funds.\n   * @return A uint256 specifying the amount of tokens still available for the spender.\n   */\n  function allowance(address _owner, address _spender) public view returns (uint256 remaining) {\n    return allowed[_owner][_spender];\n  }\n\n}\n\n/**\n * @title Burnable Token\n * @dev Token that can be irreversibly burned (destroyed).\n */\ncontract BurnableToken is StandardToken, Ownable {\n\n    event Burn(address indexed burner, uint256 value);\n\n  /**\n   * @dev Burns a specific amount of tokens.\n   * @param _value The amount of token to be burned.\n   */\n\n  function burn(uint256 _value) public {\n\n    _burn(msg.sender, _value);\n\n  }\n\n  function _burn(address _who, uint256 _value) internal {\n\n    require(_value <= balances[_who]);\n    // no need to require value <= totalSupply, since that would imply the\n    // sender's balance is greater than the totalSupply, which *should* be an assertion failure\n    balances[_who] = balances[_who].sub(_value);\n    totalSupply = totalSupply.sub(_value);\n    emit Burn(_who, _value);\n    emit Transfer(_who, address(0), _value);\n  }\n} \n\n/**\n * @title Mintable token\n * @dev ERC20 token, with mintable token creation\n * Based on code by TokenMarketNet: https://github.com/TokenMarketNet/ico/blob/master/contracts/MintableToken.sol\n */\n\ncontract MintableToken is StandardToken, Ownable {\n    using SafeMath for uint256;\n\n  mapping(address => uint256)public shares;\n  \n  address[] public beneficiaries;\n \n  event Mint(address indexed to, uint256 amount);\n  event MintFinished();\n  event BeneficiariesAdded();\n  \n  uint256 public lastMintingTime;\n  uint256 public mintingStartTime = 1529773359;\n  uint256 public mintingThreshold = 31536000;\n  uint256 public lastMintedTokens = 91000000000000000;\n\n  bool public mintingFinished = false;\n  \n  \n\n  modifier canMint() {\n    require(!mintingFinished);\n    require(totalSupply < 910000000000000000);// Total minting has not yet been finished\n    require(beneficiaries.length == 7);//Check beneficiaries has been added\n    _;\n  }\n\n  modifier hasMintPermission() {\n    require(msg.sender == owner);\n    _;\n  }\n\n  /**\n   * @dev Function to mint tokens\n   * @return A boolean that indicates if the operation was successful.\n   */\n\n  function mint() hasMintPermission  canMint public  returns (bool){\n    \n    uint256 _amount = tokensToMint();\n    \n    totalSupply = totalSupply.add(_amount);\n    \n    \n    for(uint8 i = 0; i<beneficiaries.length; i++){\n        \n        balances[beneficiaries[i]] = balances[beneficiaries[i]].add(_amount.mul(shares[beneficiaries[i]]).div(100));\n        emit Mint(beneficiaries[i], _amount.mul(shares[beneficiaries[i]]).div(100));\n        emit Transfer(address(0), beneficiaries[i], _amount.mul(shares[beneficiaries[i]]).div(100));\n    }\n    \n    lastMintingTime = now;\n    \n   \n     return true;\n  }\n  \n  //Return how much tokens will be minted as per algorithm. Each 10% tokens will be reduced\n  function tokensToMint()private returns(uint256 _tokensToMint){\n      \n      uint8 tiersToBeMinted = currentTier() - getTierForLastMiniting();\n      \n      require(tiersToBeMinted>0);\n      \n      for(uint8 i = 0;i<tiersToBeMinted;i++){\n          _tokensToMint = _tokensToMint.add(lastMintedTokens.sub(lastMintedTokens.mul(10).div(100)));\n          lastMintedTokens = lastMintedTokens.sub(lastMintedTokens.mul(10).div(100));\n      }\n      \n      return _tokensToMint;\n      \n  }\n \n  function currentTier()private view returns(uint8 _tier) {\n      \n      uint256 currentTime = now;\n      \n      uint256 nextTierStartTime = mintingStartTime;\n      \n      while(nextTierStartTime < currentTime) {\n          nextTierStartTime = nextTierStartTime.add(mintingThreshold);\n          _tier++;\n      }\n      \n      return _tier;\n      \n  }\n  \n  function getTierForLastMiniting()private view returns(uint8 _tier) {\n      \n       uint256 nextTierStartTime = mintingStartTime;\n      \n      while(nextTierStartTime < lastMintingTime) {\n          nextTierStartTime = nextTierStartTime.add(mintingThreshold);\n          _tier++;\n      }\n      \n      return _tier;\n      \n  }\n  \n\n  /**\n   * @dev Function to stop minting new tokens.\n   * @return True if the operation was successful.\n   */\n\n  function finishMinting() onlyOwner canMint public returns (bool) {\n    mintingFinished = true;\n    emit MintFinished();\n    return true;\n  }\n\n\nfunction beneficiariesPercentage(address[] _beneficiaries, uint256[] percentages) onlyOwner external returns(bool){\n   \n    require(_beneficiaries.length == 7);\n    require(percentages.length == 7);\n    \n    uint256 sumOfPercentages;\n    \n    if(beneficiaries.length>0) {\n        \n        for(uint8 j = 0;j<beneficiaries.length;j++) {\n            \n            shares[beneficiaries[j]] = 0;\n            delete beneficiaries[j];\n            \n            \n        }\n        beneficiaries.length = 0;\n        \n    }\n\n    for(uint8 i = 0; i < _beneficiaries.length; i++){\n\n      require(_beneficiaries[i] != 0x0);\n      require(percentages[i] > 0);\n      beneficiaries.push(_beneficiaries[i]);\n      \n      shares[_beneficiaries[i]] = percentages[i];\n      sumOfPercentages = sumOfPercentages.add(percentages[i]); \n     \n    }\n\n    require(sumOfPercentages == 100);\n    emit BeneficiariesAdded();\n    return true;\n  } \n}\n\n/**\n * @title ERA Swap Token \n * @dev Token representing EST.\n */\n contract EraSwapToken is BurnableToken, MintableToken{\n     string public name ;\n     string public symbol ;\n     uint8 public decimals = 8 ;\n     \n     /**\n     *@dev users sending ether to this contract will be reverted. Any ether sent to the contract will be sent back to the caller\n     */\n     function ()public payable {\n         revert();\n     }\n     \n     /**\n     * @dev Constructor function to initialize the initial supply of token to the creator of the contract\n     * @param initialSupply The initial supply of tokens which will be fixed through out\n     * @param tokenName The name of the token\n     * @param tokenSymbol The symboll of the token\n     */\n     constructor (\n            uint256 initialSupply,\n            string tokenName,\n            string tokenSymbol\n         ) public {\n         totalSupply = initialSupply.mul( 10 ** uint256(decimals)); //Update total supply with the decimal amount\n         name = tokenName;\n         symbol = tokenSymbol;\n         balances[msg.sender] = totalSupply;\n         \n         //Emitting transfer event since assigning all tokens to the creator also corresponds to the transfer of tokens to the creator\n         emit Transfer(address(0), msg.sender, totalSupply);\n     }\n     \n     /**\n     *@dev helper method to get token details, name, symbol and totalSupply in one go\n     */\n    function getTokenDetail() public view returns (string, string, uint256) {\n\t    return (name, symbol, totalSupply);\n    }\n }\n",
  "sourcePath": "C:\\Users\\SameePrateek\\Desktop\\EST\\contracts\\EraSwapToken.sol",
  "compiler": {
    "name": "solc",
    "version": "0.4.24+commit.e67f0147.Emscripten.clang"
  },
  "schemaVersion": "2.0.1",
  "updatedAt": "2018-07-03T05:39:11.652Z"
}